:100000000C943A000C9457000C9457000C94570031
:100010000C9459000C94C4000C9457000C94570095
:100020000C9457000C9457000C9457000C948802C1
:100030000C9457000C9457000C942E020C9457000B
:100040000C9457000C9457000C94D6010C94570054
:100050000C9457000C9457000C9457000C945700C4
:100060000C9457000C9457006364696E6F7073753D
:1000700078585B0011241FBECFEFD8E0DEBFCDBFA4
:1000800011E0A0E0B1E0ECE7F7E102C005900D92CD
:10009000A038B107D9F721E0A0E8B1E001C01D9276
:1000A000A43AB207E1F70E94B6020C94BC0B0C9480
:1000B00000001F920F920FB60F9211242F933F93BF
:1000C0008F939F93AF93BF9386B190E09C01A4E080
:1000D00035952795AA95E1F7217020939701B5E012
:1000E00095958795BA95E1F781708093940188235F
:1000F00051F1809187018130D9F4809181008A7F0C
:10010000809381008091840090918500B0E0A0E010
:100110008093900190939101A0939201B0939301E9
:1001200082E090E090938F0180938E01109287017E
:10013000BF91AF919F918F913F912F910F900FBEE3
:100140000F901F901895222399F31092850010921A
:1001500084008091810085608093810081E080939C
:10016000870181E090E090938F0180938E01E0CF32
:1001700010929001109291011092920110929301AD
:1001800085B5846085BD08951F920F920FB60F92BA
:1001900011242F933F938F939F9389B190E09C01FB
:1001A000359527953595279521702093990133E052
:1001B000959587953A95E1F7817080939501909197
:1001C000960191110EC0222331F0811132C081E0DD
:1001D0008093980125C0882361F182E08093980183
:1001E0000EC090919601913081F4222321F0882352
:1001F00001F183E0EDCF81111CC010929801809134
:10020000880190918901019710C0909196019230D8
:1002100009F042C021113CC081110BC0109298011D
:100220008091880190918901019690938901809332
:10023000880180918801909189018436910530F080
:1002400083E690E0909389018093880180918801F2
:1002500090918901892B31F481E090E0909389019C
:10026000809388019091980180919601981739F0B8
:1002700081E080938A0180919801809396019F91FB
:100280008F913F912F910F900FBE0F901F90189557
:10029000882379F283E0A2CF211104C0882349F298
:1002A00082E096CF8111C5CF81E098CF9BB19F703E
:1002B0009BB99BB1807F892B8BB9299A299A299860
:1002C0000895CF93C82F28980E9456018C2F8295AD
:1002D000807F0E9456018FE39FE10197F1F700C0F4
:1002E0000000CF910895811104C080E8860F0C941E
:1002F000610180ECFBCF209A219A8AB1806F8AB984
:100300008FE59AEE0197F1F700C0000080E30E94AC
:1003100056018FE19EE40197F1F700C0000080E3F1
:100320000E9456018FED91E00197F1F700C00000A7
:1003300080E30E94560180E20E9456018FE39FE114
:100340000197F1F700C0000088E20E9461018FE090
:100350000C946101CF93C82F289A0E9456018C2FCC
:100360008295807F0E9456018FE39FE10197F1F70C
:1003700000C00000CF910895CF93DF93EC018991E5
:10038000811103C0DF91CF9108950E94AA01F7CF98
:100390008091C00087FFFCCF8091C60008959091A6
:1003A000C00095FFFCCF8093C60008951F920F9266
:1003B0000FB60F9211248F939F93EF93FF93909119
:1003C000C6009B3741F481E080938D0110928C012F
:1003D00010928B0118C080918D01882311F18091BA
:1003E0008B0181111EC080ED890F8A30D0F480917D
:1003F0008C01843088F4E82FF0E0E656FE4F9083BD
:100400008F5F80938C01FF91EF919F918F910F905F
:100410000FBE0F901F90189510928D0110928C01B5
:10042000F2CF9D3769F480918C01882321F081E01F
:1004300080938B01E8CF10928B0110928D01E3CF56
:1004400010928D01C3CF84B5826084BDEEE6F0E0EA
:100450008081826080838FE487BD08951F920F9210
:100460000FB60F9211244F935F936F937F938F93E7
:100470009F93AF93BF9388B192E0892788B9809109
:10048000900190919101A0919201B09193010196F8
:10049000A11DB11D8093900190939101A0939201B1
:1004A000B0939301809101019091020140919001DC
:1004B000509191016091920170919301092E000C6D
:1004C000AA0BBB0B481759076A077B0718F085B5BD
:1004D0008B7F85BDBF91AF919F918F917F916F91E0
:1004E0005F914F910F900FBE0F901F901895E1E80C
:1004F000F0E0808188608083EFE6F0E080818260B8
:10050000808384E294EF909389008093880008951B
:100510001F920F920FB60F9211248F939F93EF9318
:10052000FF93E1E8F0E080818A7F808383E090E0C0
:1005300090938F0180938E01FF91EF919F918F9106
:100540000F900FBE0F901F901895E0EBF0E08081A8
:100550008360808380818068808383E28093B3009E
:10056000E1EBF0E08081876080830895CF93DF9393
:10057000CDB7DEB7CB55D1090FB6F894DEBF0FBEAD
:10058000CDBF0E947B0188B1806388B9259A239AE8
:100590008AB1837F8AB98BB18C608BB9399A80918B
:1005A0006800826080936800809168008460809316
:1005B000680080916C00806380936C0080916D0076
:1005C0008C6080936D0087E690E09093C5008093E7
:1005D000C4008091C10088618093C10086E080934F
:1005E000C2008091C10080688093C10087B18C6097
:1005F00087B988B18C6088B9249A2C98519A7894DC
:1006000081E00E94610183E091E00E94BC0160E012
:1006100081E00E94730181E191E00E94BC012FEF13
:1006200067EA71E6215060407040E1F700C00000C9
:1006300081E00E9461010E9477020E9423020E94D1
:10064000A50284E690E00E946B0B9FEF980F933613
:1006500008F074C0809386018091860190E09093A9
:10066000890180938801809186011F928F9380E297
:1006700091E09F938F931F928EE18F938E01015E85
:100680001F4F1F930F930E94A90581E00E946101F3
:1006900060E080E00E94730184E291E00E94BC016E
:1006A00060E081E00E947301C8010E94BC010FB6A6
:1006B000F894DEBF0FBECDBFFE01E85BFF4F6A9628
:1006C000FFAFEEAF6A973AE0C32ED12CE12CF12CAC
:1006D000BE01635C7F4F6C967FAF6EAF6C9744E654
:1006E000442E512C612C712C1E0173E5270E311CF8
:1006F0008091800190918101892B69F18091820123
:1007000090918301A0918401B0918501892B8A2B5E
:100710008B2B09F1809180019091810140918201A0
:10072000509183016091840170918501841B950B28
:100730008F31910554F04298439A0DC08CE3809319
:10074000860181E080938A018ECF823E9F4F0CF01C
:1007500086C04398429A80918A018823C9F16091AA
:10076000860184E690E00E94730B10928A018091CA
:1007700088019091890180938601809186011F9262
:100780008F9360E271E07F936F931F928EE18F935E
:10079000E1E0F0E0EC0FFD1FFF93EF930E94A9054D
:1007A00081E00E94610160E080E00E94730184E2C8
:1007B00091E00E94BC0160E081E00E947301CE01E3
:1007C00001960E94BC010FB6F894DEBF0FBECDBFEC
:1007D00080918E0190918F01019709F042C081E0D4
:1007E0000E94610185E391E00E94BC0110928F019B
:1007F00010928E012D9A80918B01882309F478CF75
:1008000010928B0160E871E07F936F93E7E5F1E070
:10081000FF93EF938AE991E09F938F930E94D9050C
:1008200081E00E94610160E080E00E94730187E73F
:1008300091E00E94BC018AE991E00E94BC016FEF47
:1008400073ED80E3615070408040E1F700C000002C
:100850000F900F900F900F900F900F9049CF429AEA
:100860006BCF80918E0190918F01029709F019C191
:100870002D9881E00E9461018DE391E00E94BC010E
:100880007FEF83ED90E3715080409040E1F700C02E
:10089000000081E00E9461016091900170919101DE
:1008A000809192019091930123E0660F771F881F3A
:1008B000991F2A95D1F72DE730E040E050E00E94E3
:1008C0006505922EA32EB42E052F5F934F933F9371
:1008D0002F93E5E4F1E0FF93EF931F921BE01F934A
:1008E0006A966FAD6A976F9369967FAD69977F93AC
:1008F0000E94A90588E491E00E94BC01CE01885BBA
:100900009F4F0E94BC018FE491E00E94BC010FB692
:10091000F894DEBF0FBECDBF6CEA78EA80E090E0CD
:10092000292D3A2D4B2D502F0E94650520938201D1
:10093000309383014093840150938501609182013B
:100940007091830180918401909185018090820152
:1009500090908301A0908401B0908501A701960139
:100960000E9465059F938F937F936F93C501B40198
:10097000A70196010E9465055F934F933F932F93C4
:10098000E3E5F1E0FF93EF931F921F936C966FAD39
:100990006C976F936B967FAD6B977F930E94A905C1
:1009A00060E081E00E9473018BE591E00E94BC0150
:1009B000CE01CD960E94BC0183E691E00E94BC016D
:1009C00010928F0110928E016091820170918301CB
:1009D000809184019091850110918601A701960173
:1009E0000E946505812F90E0B0E0A0E00FB6F8947A
:1009F000DEBF0FBECDBF82179307A407B50710F463
:100A00000E94B800609182017091830180918401FD
:100A100090918501A70196010E946505A9EEBFEF9F
:100A20000E948A056455724F8F4F9F4FA301920118
:100A30000E9465052093B300FFEF27EA61E6F150BD
:100A400020406040E1F700C0000080918201909159
:100A50008301A0918401B0918501BF93AF939F93CF
:100A60008F9387E591E09F938F931F928BE08F93F5
:100A70003F922F920E94A9058BE70E94CF0181012E
:100A80000FB6F894DEBF0FBECDBFF80181918F0184
:100A9000811104C08DE70E94CF01ADCE0E94CF012D
:100AA000F4CF80918E0190918F01039709F0A3CE2E
:100AB00081E00E94610189E691E00E94BC012D98CD
:100AC00010928F0110928E0196CEA1E21A2EAA1BCF
:100AD000BB1BFD010DC0AA1FBB1FEE1FFF1FA217EE
:100AE000B307E407F50720F0A21BB30BE40BF50BEB
:100AF000661F771F881F991F1A9469F76095709574
:100B0000809590959B01AC01BD01CF010895B7FF81
:100B10000C948F050E948F05821B930B08950E94F1
:100B20009A05A59F900DB49F900DA49F800D911DD7
:100B300011240895A29FB001B39FC001A39F700D1F
:100B4000811D1124911DB29F700D811D1124911DD5
:100B50000895AEE0B0E0EFEAF5E00C94930B0D8958
:100B60001E898F89988D26E02C831A83098397FF2D
:100B700002C080E090E801979E838D83AE01455EC0
:100B80005F4F698D7A8DCE0101960E94F2054D81ED
:100B90005E8157FD0AC02F813885421753070CF438
:100BA0009A01020F131FF80110822E96E4E00C94B4
:100BB000AF0BAEE0B0E0EFEDF5E00C94950B85E007
:100BC0008C838B899C899A838983AE01495E5F4FB0
:100BD0006D897E89CE0101960E9457092E96E2E02A
:100BE0000C94B10BABE0B0E0E8EFF5E00C94850BB2
:100BF0007C013B018A01FC0117821682838181FFFF
:100C0000C8C1CE0101965C01F7019381F30193FD08
:100C1000859193FF81913F01882309F453C1853267
:100C200039F493FD859193FF81913F01853229F439
:100C3000B70190E00E94C20AE7CF912C212C312C01
:100C4000FFE1F31538F08B3211F190F4803209F1A5
:100C5000833229F137FC3CC020ED280F2A3050F5B3
:100C600036FE20C08AE0989E200D1124922E06C0E8
:100C70008D3291F0803371F7689430F8F30193FD71
:100C8000859193FF81913F018111DACF21C0689452
:100C900031F8689432F8F2CF689433F8EFCF689463
:100CA00034F8ECCFEAE02E9E200D1124222E689419
:100CB00035F8E4CF8E3229F436FC04C1689436F856
:100CC000DDCF8C3619F4689437F8D8CF8836B1F276
:100CD000982F9F7D95549330E0F08336A1F18337B0
:100CE000C1F1833509F063C02801F2E04F0E511CB9
:100CF000F801C080D180692D70E036FC02C06FEF32
:100D00007FEFC6010E94700A4C01689437F8820197
:100D10000AC00C5F1F4FFFE3F98388248394912C52
:100D20006501E89437F833FE2DC0522C81149104EC
:100D300071F5552009F468CFB70180E290E00E9478
:100D4000C20A5A94F6CFF801808189830E5F1F4F43
:100D5000E4CF2801F2E04F0E511CF801C080D18091
:100D6000692D70E036FC02C06FEF7FEFC6010E9474
:100D70007B0A4C018201D5CFB70180E290E00E944E
:100D8000C20A2A942814190409F0B0F7CECFF6014C
:100D900037FC859137FE81916F01B70190E00E9489
:100DA000C20A51105A94F1E08F1A9108BFCF8436CD
:100DB00019F0893609F077C0F80137FE6BC0608101
:100DC0007181828193810C5F1F4FF32DFF763F2E3F
:100DD00097FF09C090958095709561957F4F8F4FD3
:100DE0009F4F689437F82AE030E0A5010E940A0B73
:100DF000C82ECA188C2C432C36FE0CC0E89440F840
:100E0000C91440F434FE05C032FC03C0F32DFE7E4D
:100E10004F2E892C44FE95C0FE01EC0DF11D808102
:100E2000803309F087C0242D297E422E842D8870BE
:100E3000582E43FC95C040FE8FC09C2C821418F4A1
:100E40002C0C922C981844FE91C0B70180E390E0DE
:100E50000E94C20A42FE09C088E790E041FE02C03B
:100E600088E590E0B7010E94C20AC91408F48AC05C
:100E7000CA94D12C9FEFC91AD90ACA0CDB1CF601FF
:100E800082916F01B70190E00E94C20AAC14BD04C8
:100E9000B1F74FCF60817181072E000C880B990B41
:100EA0000E5F1F4F92CFD32CE894D4F82AE030E0A5
:100EB000853739F1232D297FD22E8F3601F148F461
:100EC0008835A9F0F701868197812B96E2E10C9491
:100ED000A10B803749F08837A9F7D4FE02C0689487
:100EE000D2F820E130E00DC06894D4F8F6CF34FE9B
:100EF00003C0822F8660D82E20E132E002C028E0B5
:100F000030E0F801D7FE0FC060817181828193814A
:100F10000C5F1F4FA5010E940A0BC82ECA183D2C5A
:100F2000E89437F867CF6081718190E080E00E5FD0
:100F30001F4FF0CF42FC02C0839478CF83948394F8
:100F400075CF842D867809F471CFF6CFB70180E292
:100F500090E00E94C20A83948214C0F3512C73CF94
:100F6000522C5818821408F46ECFF8CF842D86784E
:100F700009F47BCF8BE241FE80E247FC8DE2B701B2
:100F800090E071CFB70180E390E00E94C20A9A948A
:100F90006CCF8FEF9FEF99CF20FD09C0FC0123FD9F
:100FA00005C022FF02C0738362835183408308958A
:100FB00044FD17C046FD1DC0DB01FC01AA0FBB1F8D
:100FC000EE1FFF1F1094D1F76A0F7B1F8E1F9F1F0C
:100FD000660F771F881F991F620F711D811D911D5C
:100FE000089533E0660F771F881F991F3150D1F79E
:100FF000F3CF34E0F7CF0F931F93CF93DF938C01A0
:10100000C8010E94860AEC0197FD08C00E945C0A94
:10101000892BB1F7B801CE010E94F20ACE01DF910F
:10102000CF911F910F9108958F929F92AF92BF928F
:10103000EF92FF920F931F93CF93DF938C01D62FE4
:101040007A01B22E0E94860A9C0133272B32310589
:1010500029F02D323105A9F46894B7F8D15061F424
:1010600080E0DF91CF911F910F91FF90EF90BF90A3
:10107000AF909F908F900895C8010E94860A97FDB7
:10108000EFCFCB2DCD7F2B2D2073F9F48033E9F4F6
:10109000AA24AA94AD0E89F0C8010E94860A97FD81
:1010A0000CC0282F2F7D283561F4C264D25029F05E
:1010B000C8010E94860A97FF08C0812C912C540118
:1010C0001BC0B6FE2BC0C260DA2D812C912C5401BE
:1010D00020ED280F283028F1C4FD09C02A3008F17E
:1010E000C6FF05C02F7D3FEE320F3630C8F0B80185
:1010F0000E94F20AC1FFB4CFC7FF08C0B094A09409
:1011000090948094811C911CA11CB11C2C2FB501C2
:10111000A401C7010E94CC0781E0A3CFC261D4CF54
:1011200027504C2FC501B4010E94D8074B015C0128
:10113000C260D15009F3C8010E94860A97FFC8CF48
:10114000D9CFA0E2B0E0E7EAF8E00C948A0B5C01AA
:10115000962E7A01CE0101966C0180E2F601119281
:101160008A95E9F7F501B381890130E020E0712C1F
:10117000812CA0E041E050E0F801B3FD8591B3FF80
:101180008191982F8F01811107C010E000E0C80104
:10119000A096EDE00C94A60B8E3519F421153105BF
:1011A00041F1A21713064CF48D3549F18D3229F423
:1011B000811006C0882483941DC0882009F464C06F
:1011C000E92FE695E695E695EC0DFD2DF11D892FAD
:1011D0008770BA0101C0660F8A95EAF78081682B93
:1011E0006083791651F0971510F49F5FE9CF915005
:1011F000E7CFA1E02F5F3F4FBFCF812CFBCF8820EF
:1012000019F08E8180628E83AA2359F0F6019E0127
:101210002F5D3F4F8081809580833196E217F307E1
:10122000C9F788248394C5010E94860A97FD16C0D9
:10123000E82FE695E695E695EC0DFD2DF11D208154
:1012400030E0AC014770552702C0359527954A9587
:10125000E2F720FD06C0B5010E94F20A882069F07D
:1012600094CFE114F10429F0F7018083C7010196BE
:101270007C019A94812C9110D6CFE114F10409F4E9
:1012800086CFF701108283CFE82FE695E695E695A5
:10129000EC0DFD2DF11D982F9770BA0101C0660F5E
:1012A0009A95EAF79081692B6083782EA3CFB0E0FE
:1012B000A0E0EDE5F9E00C94880B6C01EB015A011C
:1012C000FC0117821682512CF601E380FE01E3FC3B
:1012D0008591E3FE8191182FEF018823E9F090E0DA
:1012E0000E945C0A892B21F0C6010E94FB07ECCF0B
:1012F000153241F4FE01E3FC1591E3FE1191EF017B
:10130000153269F4C6010E94860A97FD8EC018172F
:10131000D9F2B6010E94F20A852D90E08AC000E061
:101320001A3231F4E3FC1591E3FE1191EF0101E073
:10133000F12C20ED210F2A3048F101FF37C0FF20AA
:1013400059F31836B1F11C3609F43DC0112321F3CD
:10135000612F70E088E690E00E94650A892BE1F237
:10136000912C812C00FD06C0F50180809180C50183
:1013700002965C011E3679F5F6014681578170E0D0
:1013800060E0202FC4010E94CC079ECF02606F2D29
:1013900070E090E080E040E20E94D807F62EFE0167
:1013A000E3FC1591E3FE1191EF01C3CFFF24FA9402
:1013B000C8CFFE01E3FC1591E3FE1191EF01183651
:1013C00009F0C4CF08600460FE01E3FC1591E3FE60
:1013D0001191EF01BBCF1336C1F401FD02C0FF2410
:1013E000F394C6010E94860A97FD1FC081149104E0
:1013F00029F0F4018083C40101964C01FA94F110A4
:10140000F0CF00FD61CF53945FCF1B35B9F49E013F
:10141000A4016F2DC6010E94A108EC01892B89F758
:10142000F6018381807309F477CF8FEF9FEF51101E
:1014300073CFCDB7DEB7EFE00C94A40BC6010E94CA
:10144000FB0797FDF2CF1F36A9F130F4143641F0B7
:10145000193639F0006405C01337B9F01537D1F7E4
:101460000062202FA4016F2DC6010E941408811173
:10147000C8CFD6CF8114910429F0F4016082C40151
:1014800001964C01FA94FF2071F0C6010E94860A71
:101490003C0197FD08C00E945C0A892B59F3B601F4
:1014A000C3010E94F20A8114910409F4AACFF40145
:1014B0001082A7CF0061D5CF91110C94680B8032B8
:1014C00019F089508550C8F70895FC01059006165B
:1014D00021F00020D9F7C00108953197CF01089578
:1014E000FC010590615070400110D8F780959095EF
:1014F0008E0F9F1F0895FC016150704001900110F4
:10150000D8F7809590958E0F9F1F0895CF93DF9306
:10151000EC012B8120FF1AC026FF0CC02F7B2B83F0
:101520008E819F8101969F838E838A8190E0DF91D7
:10153000CF91089522FF18C0E881F9818081082E9B
:10154000000C990B009729F420622B838FEF9FEFFB
:10155000EECF3196F983E8832E813F812F5F3F4F95
:101560003F832E839927E3CFEA85FB85099597FF73
:10157000F3CF2B81019621F080E2822B8B83E6CF83
:1015800080E1FBCF0F931F93CF93DF93182F092F89
:10159000EB018B8181FD09C01FEF0FEF812F902F91
:1015A000DF91CF911F910F91089582FF14C02E817A
:1015B0003F818C819D81281739073CF4E881F981AE
:1015C000CF0101969983888310838E819F81019634
:1015D0009F838E83E3CFE885F985812F0995892B39
:1015E000A1F3DACFFB01238120FF11C026FD0FC03C
:1015F0008F3F980771F082832F7D2064238326819B
:1016000037812150310937832683992708958FEF39
:101610009FEF0895FA01AA27283051F1203181F176
:10162000E8946F936E7F6E5F7F4F8F4F9F4FAF4FEA
:10163000B1E03ED0B4E03CD0670F781F891F9A1FFD
:10164000A11D680F791F8A1F911DA11D6A0F711DB1
:10165000811D911DA11D20D009F468943F912AE0BD
:10166000269F11243019305D3193DEF6CF010895A5
:10167000462F4770405D4193B3E00FD0C9F7F6CFD6
:10168000462F4F70405D4A3318F0495D31FD40529E
:10169000419302D0A9F7EACFB4E0A6959795879534
:1016A00077956795BA95C9F7009761057105089513
:1016B0009B01AC010A2E06945795479537952795BF
:1016C000BA95C9F7620F731F841F951FA01D089557
:1016D000992788270895F999FECF92BD81BDF89A80
:1016E000992780B50895262FF999FECF92BD81BD27
:1016F000F89A019700B4021639F01FBA20BD0FB650
:10170000F894FA9AF99A0FBE08952F923F924F9249
:101710005F926F927F928F929F92AF92BF92CF9281
:10172000DF92EF92FF920F931F93CF93DF93CDB78A
:10173000DEB7CA1BDB0B0FB6F894DEBF0FBECDBF02
:1017400009942A88398848885F846E847D848C84D3
:101750009B84AA84B984C884DF80EE80FD800C81DC
:101760001B81AA81B981CE0FD11D0FB6F894DEBFBF
:0C1770000FBECDBFED010895F894FFCF2F
:10177C0028880145453130392050726F6A65637491
:10178C0000497361692052616A6172616D616E001A
:10179C002534640053706565642054687265736801
:1017AC006F6C643A00737461727465640073746F67
:1017BC00707065640025640054696D653A200020E2
:1017CC006D7300256C642E256C6400537065656424
:1017DC003A200020636D2F730054696D657220658B
:1017EC007870697265640052656D6F74653A20009B
:00000001FF
