:100000000C9434000C9449000C9449000C94490061
:100010000C9449000C9449000C9449000C9449003C
:100020000C9449000C9449000C9449000C947F00F6
:100030000C9449000C9449000C9449000C9449001C
:100040000C9449000C9449000C9449000C9449000C
:100050000C9449000C9449000C9449000C944900FC
:100060000C9449000C94490011241FBECFEFD8E036
:10007000DEBFCDBF11E0A0E0B1E0E0EDF3E002C0F3
:1000800005900D92A233B107D9F70E942E010C946E
:10009000E6010C940000882321F0439A459A459884
:1000A00008954398FBCFCF93DF93C82FD62F61FBE2
:1000B000882780F90E944B008D2F81700E944B0091
:1000C000C1FB882780F90E944B008C2F8170DF9143
:1000D000CF910C944B00E1E8F0E080818860808350
:1000E000AFE6B0E08C9182608C938FE39FE19093B8
:1000F00089008093880080818160808308951F92A9
:100100000F920FB60F9211248F939F9385B190E1B8
:10011000892785B99F918F910F900FBE0F901F90E7
:1001200018959BB19F709BB99BB1807F892B8BB930
:10013000299A299A29980895CF93C82F28980E9420
:1001400091008C2F8295807F0E9491008FE39FE128
:100150000197F1F700C00000CF910895811104C00C
:1001600080E8860F0C949C0080ECFBCF209A219AAB
:100170008AB1806F8AB98FE59AEE0197F1F700C0D6
:10018000000080E30E9491008FE19EE40197F1F767
:1001900000C0000080E30E9491008FED91E0019784
:1001A000F1F700C0000080E30E94910080E20E940D
:1001B00091008FE39FE10197F1F700C0000088E212
:1001C0000E949C008FE00C949C00CF93C82F289A2B
:1001D0000E9491008C2F8295807F0E9491008FE376
:1001E0009FE10197F1F700C00000CF910895CF93F0
:1001F000DF93EC018991811103C0DF91CF910895C4
:100200000E94E500F7CFECE7F0E080818F778083F4
:10021000808180648083AAE7B0E08C9187608C93B2
:100220008081806280838C9180688C930895909106
:100230007C00907F90937C0090917C008F70892B44
:1002400080937C0080917A00806480937A00809112
:100250007A0086FDFCCF8091790008950E94B60057
:100260000E940301249A87B1886287B90E946B00BB
:10027000789481E00E949C0080E091E00E94F70069
:1002800060E081E00E94AE008CE091E00E94F70007
:100290002FEF87EA91E6215080409040E1F700C0BF
:1002A000000081E00E949C0060E080E00E94AE00BF
:1002B00081E191E00E94F70060E081E00E94AE00E1
:1002C00081E291E00E94F70001E0C0E0D0E080E030
:1002D0000E941701182F87E7810F143108F04AC0D8
:1002E000D23008F047C00D2F000F0D0F67E0600FF0
:1002F00081E00E94AE0080E20E94E500DF5F6AE0DC
:10030000600F81E00E94AE008EE30E94E5002FEFB7
:1003100083EC99E0215080409040E1F700C000005C
:1003200001E08EEA810F10521732C0F5C230B0F5ED
:100330001C2F110F1C0F67E0610F80E00E94AE00C0
:1003400080E20E94E500CF5F6AE0610F80E00E94DA
:10035000AE008EE30E94E5002FEF83EC99E0215080
:1003600080409040E1F700C000006D2F8C2F0E946C
:1003700053002AC08732A8F6DD2399F26D2F660F4D
:100380006D0F695F81E00E94AE0080E20E94E5008F
:10039000D1506D2F660F6D0F695FB3CF873290F428
:1003A000CC2381F06C2F660F6C0F695F80E00E9498
:1003B000AE0080E20E94E500C1506C2F660F6C0F0A
:1003C000695FC4CF0111D1CF00E081CFF894FFCF96
:1003D0004545313039204C616220390049736169EB
:1003E000004C6576656C3A203E4420204D2020422A
:1003F00000436F6C6F723A203E522020472020420B
:020400000000FA
:00000001FF
