:100000000C9434000C9451000C9451000C94510049
:100010000C9461000C9451000C9451000C9451000C
:100020000C9451000C9451000C9451000C9451000C
:100030000C9451000C9451000C9451000C945100FC
:100040000C9451000C9451000C9451000C945100EC
:100050000C9451000C9451000C9451000C945100DC
:100060000C9451000C94510011241FBECFEFD8E026
:10007000DEBFCDBF11E0A0E0B1E0E6EDF4E002C0EC
:1000800005900D92A230B107D9F721E0A2E0B1E0CE
:1000900001C01D92AD30B207E1F70E94E9010C9456
:1000A00069020C94000005966AE070E00E9441022B
:1000B0006150710908F4089585E38A95F1F700000D
:1000C000F7CF1F920F920FB60F9211248F939F9329
:1000D00086B1982F907190930C01807280930901E2
:1000E00080910A01811119C080910C01882341F08F
:1000F00080910901811104C081E080930B0143C00C
:1001000080910C01811151C080910901882309F46B
:100110004CC082E080930B0118C080910A018130AD
:1001200019F580910C01882331F080910901882311
:1001300011F083E0E2CF80910C01811136C08091F3
:100140000901811132C010920B018091060190913A
:1001500007010197909307018093060180910001A8
:10016000909101010C971DC080910A01823009F025
:100170007BC080910C0181116BC0809109018111BC
:1001800067C010920B0180910601909107010196C2
:1001900090930701809306018091000190910101E5
:1001A0000C9690930101809300018091060190913B
:1001B00007018F3F910539F034F08FEF90E0909375
:1001C000070180930601809106019091070197FF36
:1001D00004C01092070110920601809100019091D5
:1001E00001018E38910534F08DE890E09093010183
:1001F0008093000180910001909101018F9734F468
:100200008FE290E0909301018093000180910601BC
:10021000909107018093B3008091000190910101BA
:1002200090938B0080938A0090910B0180910A013A
:10023000981739F081E08093080180910B01809339
:100240000A019F918F910F900FBE0F901F901895EC
:1002500080910C01882309F4A8CF8091090188239B
:1002600009F4A3CF83E056CF80910C01811106C021
:1002700080910901882311F082E03FCF80910C0129
:10028000882309F492CF8091090181118ECF81E0FA
:1002900041CFA0E8B0E08C9183608C93E1E8F0E07E
:1002A0008081886180838C9180628C9382EE94E05F
:1002B00090938900809388008EE590E090938B0066
:1002C00080938A008081846080830895E0EBF0E071
:1002D0008081836080838081806880838FEF8093BA
:1002E000B300E1EBF0E080818760808308959BB1EB
:1002F0009F709BB99BB1807F892B8BB9299A299AD2
:1003000029980895CF93C82F28980E9477018C2FA1
:100310008295807F0E9477018FE39FE10197F1F73B
:1003200000C00000CF910895811104C080E8860FBD
:100330000C94820180ECFBCF209A219A8AB1806FC5
:100340008AB98FE59AEE0197F1F700C0000080E3CB
:100350000E9477018FE19EE40197F1F700C0000051
:1003600080E30E9477018FED91E00197F1F700C0E3
:10037000000080E30E94770180E20E9477018FE312
:100380009FE10197F1F700C0000088E20E9482011E
:100390008FE00C948201CF93C82F289A0E94770196
:1003A0008C2F8295807F0E9477018FE39FE10197D8
:1003B000F1F700C00000CF910895CF93DF93EC01D7
:1003C0008991811103C0DF91CF9108950E94CB01E3
:1003D000F7CF87B18F7C87B988B1806388B9239ABA
:1003E000229A8091680082608093680080916C00FE
:1003F000806380936C0078940E9466010E9449019A
:100400008091B30090E0909307018093060186B13C
:10041000982F907190930C018072809309018091C4
:100420000901811116C080910C01811112C0109236
:100430000A0180910A0180930B0186B186B1807117
:1004400080930C01809108018823B9F31092080170
:10045000F4CF80910901811108C080910C0188239B
:1004600021F081E080930A01E4CF80910901882383
:1004700031F080910C01811102C082E0F3CF83E062
:10048000F1CF97FB072E16F4009407D077FD09D023
:100490000E94550207FC05D03EF4909581959F4F30
:1004A0000895709561957F4F0895AA1BBB1B51E17C
:1004B00007C0AA1FBB1FA617B70710F0A61BB70BD4
:1004C000881F991F5A95A9F780959095BC01CD0179
:0604D0000895F894FFCF2F
:0204D6007D00A7
:00000001FF
