:100000000C9434000C943E000C943E000C943E0082
:100010000C943E000C943E000C943E000C943E0068
:100020000C943E000C943E000C943E000C943E0058
:100030000C943E000C943E000C943E000C943E0048
:100040000C943E000C943E000C943E000C943E0038
:100050000C943E000C943E000C943E000C943E0028
:100060000C943E000C943E0011241FBECFEFD8E04C
:10007000DEBFCDBF0E94B2000C9420010C940000A2
:100080009BB19F709BB99BB1807F892B8BB9299ABB
:10009000299A29980895CF93C82F28980E94400044
:1000A0008C2F8295807F0E9440008FE39FE1019713
:1000B000F1F700C00000CF910895811104C080E8DD
:1000C000860F0C944B0080ECFBCF209A219A8AB1CA
:1000D000806F8AB98FE59AEE0197F1F700C00000B2
:1000E00080E30E9440008FE19EE40197F1F700C099
:1000F000000080E30E9440008FED91E00197F1F74E
:1001000000C0000080E30E94400080E20E944000A6
:100110008FE39FE10197F1F700C0000088E20E94A1
:100120004B008FE00C944B00CF93C82F289A0E946D
:1001300040008C2F8295807F0E9440008FE39FE1DA
:100140000197F1F700C00000CF910895CF93DF939E
:10015000EC018991811103C0DF91CF9108950E9434
:100160009400F7CF429A2B9A449A0E94650081E04E
:100170000E944B0010E000E0D0E0C0E08AE0E82EF2
:10018000F12C329B27C01B9B27C0349BD1E0C801B8
:10019000B7010E94F800892B61F4D11121C0C93048
:1001A000E9F0CF5F82E00E944B0080E38C0F0E9459
:1001B00094000F5F1F4F0A30110511F410E000E0AA
:1001C0002FEF80E792E0215080409040E1F700C09F
:1001D0000000D7CFD0E0DBCFD2E0D9CFC0E0E2CF74
:1001E000D13039F7CC2311F0C150DCCFC9E0DACFE0
:1001F00097FB072E16F4009407D077FD09D00E94D4
:100200000C0107FC05D03EF4909581959F4F089511
:10021000709561957F4F0895AA1BBB1B51E107C0E4
:10022000AA1FBB1FA617B70710F0A61BB70B881F86
:10023000991F5A95A9F780959095BC01CD01089515
:04024000F894FFCF60
:00000001FF
