:100000000C9434000C9449000C9449000C94490061
:100010000C9449000C9449000C9449000C9449003C
:100020000C9449000C9449000C9449000C9449002C
:100030000C9449000C9449000C9449000C9449001C
:100040000C9449000C9449000C9449000C9449000C
:100050000C9449000C9449000C9449000C944900FC
:100060000C9449000C94490011241FBECFEFD8E036
:10007000DEBFCDBF11E0A0E0B1E0ECEFFBE002C0DD
:1000800005900D92AA33B107D9F70E940B010C9489
:10009000FC050C940000EF92FF920F931F93CF93F7
:1000A000DF9303E0D0E0C0E011E0812F0E94F40074
:1000B000CC0FDD1F80FBEE24E0F8F12CCE0DDF1D10
:1000C0001F5F163091F7015079F7CE01DF91CF9184
:1000D0001F910F91FF90EF900C94A9029BB19F701C
:1000E0009BB99BB1807F892B8BB9299A299A299832
:1000F0000895CF93C82F28980E946E008C2F829568
:10010000807F0E946E008FE39FE10197F1F700C0AE
:100110000000CF910895811104C080E8860F0C94EF
:10012000790080ECFBCF209A219A8AB1806F8AB93E
:100130008FE59AEE0197F1F700C0000080E30E947E
:100140006E008FE19EE40197F1F700C0000080E3AC
:100150000E946E008FED91E00197F1F700C0000062
:1001600080E30E946E0080E20E946E008FE39FE1B8
:100170000197F1F700C0000088E20E9479008FE04B
:100180000C947900CF93C82F289A0E946E008C2F70
:100190008295807F0E946E008FE39FE10197F1F7C7
:1001A00000C00000CF910895CF93DF93EC018991B7
:1001B000811103C0DF91CF9108950E94C200F7CF53
:1001C000ECE7F0E080818F7780838081806480839A
:1001D000AAE7B0E08C9187608C93808180628083F5
:1001E0008C9180688C93089590917C00907F90937F
:1001F0007C0090917C008F70892B80937C00809193
:100200007A00806480937A0080917A0086FDFCCF2A
:10021000809179000895CF93DF93CDB7DEB76297D1
:100220000FB6F894DEBF0FBECDBFFE013A9686E052
:10023000DF011D928A95E9F70E9493000E94E00079
:100240000E944B0081E00E94790060E080E00E9403
:100250008B0084E091E00E94D40060E081E00E9485
:100260008B0080E191E00E94D400BFEF27EA81E695
:10027000B15020408040E1F700C0000081E00E94C2
:1002800079000E94A40200E210E0B8010E9430024E
:100290006C010E94A402B8010E9430025C010E941D
:1002A000A402B8010E9430023C0161E080E00E949B
:1002B0008B007F926F92BF92AF92DF92CF928FE1CD
:1002C00091E09F938F931F9289E08F93DE011196A7
:1002D0004D01BF93AF930E94B402C4010E94D400A9
:1002E00060E081E00E948B008BE291E00E94D400EC
:1002F0000FB6F894DEBF0FBECDBF10E000E07E0168
:1003000090E1E90EF11C80E00E94F400382EABE988
:100310008A1386C010161106DCF4602F81E00E945B
:100320008B0081E391E00E94D40003501109602FFB
:1003300081E00E948B008BE291E00E94D400BFEF2D
:1003400029E688E1B15020408040E1F700C000007C
:1003500083E00E94F400282E269426942694422CB2
:10036000512C6CE081E00E948B001F922F928DE255
:1003700091E09F938F931F9283E08F93FF92EF9270
:100380000E94B40280E391E00E94D4006CE081E01E
:100390000E948B00C7010E94D4000FB6F894DEBF04
:1003A0000FBECDBF9DEC39121DC061E0600F81E032
:1003B0000E948B00C7010E94D400C80163E070E076
:1003C0000E943002FB01EE0FFF1FE80DF91D52865F
:1003D0004186AFEFB1EE24E0A150B0402040E1F7FC
:1003E00000C000008A859B858C159D0509F08BCF88
:1003F0008C859D858A159B0509F085CF8E859F8507
:100400008615970509F07FCF81E00E94790060E0B2
:1004100080E00E948B0083E391E00E94D400FFCF34
:10042000811196CF063011050CF092CF602F81E03C
:100430000E948B0081E391E00E94D4000D5F1F4F6A
:10044000602F81E00E948B008BE291E00E94D4003B
:100450009FEFA9E6B8E19150A040B040E1F776CF18
:1004600097FB072E16F4009407D077FD09D00E9461
:10047000440207FC05D03EF4909581959F4F089566
:10048000709561957F4F0895AA1BBB1B51E107C072
:10049000AA1FBB1FA617B70710F0A61BB70B881F14
:1004A000991F5A95A9F780959095BC01CD010895A3
:1004B0008F929F92AF92BF92CF92DF92EF92FF9274
:1004C000CF93DF93EC01688179818A819B816115EB
:1004D00071058105910521F464E279ED8BE597E0E2
:1004E0002DE133EF41E050E00E94620549015A01DD
:1004F0009B01AC01A7EAB1E40E9481056B017C017C
:10050000ACEEB4EFA50194010E948F05DC01CB0194
:100510008C0D9D1DAE1DBF1DB7FF03C00197A10926
:10052000B04888839983AA83BB839F77DF91CF915B
:10053000FF90EF90DF90CF90BF90AF909F908F9003
:1005400008950E945802089580E091E00E945802A8
:100550000895B0E0A0E08093000190930101A09382
:100560000201B09303010895AEE0B0E0EAEBF2E0DF
:100570000C94A2050D891E898F89988D26E02C8305
:100580001A83098397FF02C080E090E801979E8359
:100590008D83AE01455E5F4F698D7A8DCE010196E8
:1005A0000E94E4024D815E8157FD0AC02F8138858B
:1005B000421753070CF49A01020F131FF80110821F
:1005C0002E96E4E00C94BE05ABE0B0E0EAEEF2E07B
:1005D0000C9494057C013B018A01FC011782168270
:1005E000838181FFC8C1CE0101965C01F70193812F
:1005F000F30193FD859193FF81913F01882309F4D5
:1006000053C1853239F493FD859193FF81913F0168
:10061000853229F4B70190E00E94D404E7CF912CF1
:10062000212C312CFFE1F31538F08B3211F190F4CD
:10063000803209F1833229F137FC3CC020ED280FCC
:100640002A3050F536FE20C08AE0989E200D1124F5
:10065000922E06C08D3291F0803371F7689430F895
:10066000F30193FD859193FF81913F018111DACFD1
:1006700021C0689431F8689432F8F2CF689433F866
:10068000EFCF689434F8ECCFEAE02E9E200D1124D1
:10069000222E689435F8E4CF8E3229F436FC04C15A
:1006A000689436F8DDCF8C3619F4689437F8D8CFD3
:1006B0008836B1F2982F9F7D95549330E0F08336C1
:1006C000A1F18337C1F1833509F063C02801F2E05D
:1006D0004F0E511CF801C080D180692D70E036FCAE
:1006E00002C06FEF7FEFC6010E94BE044C01689408
:1006F00037F882010AC00C5F1F4FFFE3F98388249B
:100700008394912C6501E89437F833FE2DC0522C68
:100710008114910471F5552009F468CFB70180E286
:1007200090E00E94D4045A94F6CFF8018081898326
:100730000E5F1F4FE4CF2801F2E04F0E511CF8016D
:10074000C080D180692D70E036FC02C06FEF7FEF72
:10075000C6010E94C9044C018201D5CFB70180E2D5
:1007600090E00E94D4042A942814190409F0B0F7E8
:10077000CECFF60137FC859137FE81916F01B7012D
:1007800090E00E94D40451105A94F1E08F1A91081D
:10079000BFCF843619F0893609F077C0F80137FEEB
:1007A0006BC060817181828193810C5F1F4FF32D3B
:1007B000FF763F2E97FF09C09095809570956195C3
:1007C0007F4F8F4F9F4F689437F82AE030E0A501A4
:1007D0000E940405C82ECA188C2C432C36FE0CC06F
:1007E000E89440F8C91440F434FE05C032FC03C05C
:1007F000F32DFE7E4F2E892C44FE95C0FE01EC0D9C
:10080000F11D8081803309F087C0242D297E422E7E
:10081000842D8870582E43FC95C040FE8FC09C2CC0
:10082000821418F42C0C922C981844FE91C0B70135
:1008300080E390E00E94D40442FE09C088E790E083
:1008400041FE02C088E590E0B7010E94D404C914BB
:1008500008F48AC0CA94D12C9FEFC91AD90ACA0CCD
:10086000DB1CF60182916F01B70190E00E94D40475
:10087000AC14BD04B1F74FCF60817181072E000C1D
:10088000880B990B0E5F1F4F92CFD32CE894D4F8AE
:100890002AE030E0853739F1232D297FD22E8F369B
:1008A00001F148F48835A9F0F701868197812B96EC
:1008B000E2E10C94B005803749F08837A9F7D4FEFF
:1008C00002C06894D2F820E130E00DC06894D4F8FA
:1008D000F6CF34FE03C0822F8660D82E20E132E0AE
:1008E00002C028E030E0F801D7FE0FC060817181BE
:1008F000828193810C5F1F4FA5010E940405C82EC1
:10090000CA183D2CE89437F867CF6081718190E078
:1009100080E00E5F1F4FF0CF42FC02C0839478CF7F
:100920008394839475CF842D867809F471CFF6CFA4
:10093000B70180E290E00E94D40483948214C0F353
:10094000512C73CF522C5818821408F46ECFF8CF64
:10095000842D867809F47BCF8BE241FE80E247FC50
:100960008DE2B70190E071CFB70180E390E00E9483
:10097000D4049A946CCF8FEF9FEF99CFFC01059030
:10098000615070400110D8F7809590958E0F9F1F91
:100990000895FC016150704001900110D8F78095D6
:1009A00090958E0F9F1F08950F931F93CF93DF9302
:1009B000182F092FEB018B8181FD09C01FEF0FEF6D
:1009C000812F902FDF91CF911F910F91089582FF7A
:1009D00014C02E813F818C819D81281739073CF4FA
:1009E000E881F981CF0101969983888310838E81F4
:1009F0009F8101969F838E83E3CFE885F985812FC0
:100A00000995892BA1F3DACFFA01AA27283051F1F1
:100A1000203181F1E8946F936E7F6E5F7F4F8F4F2F
:100A20009F4FAF4FB1E03ED0B4E03CD0670F781F8E
:100A3000891F9A1FA11D680F791F8A1F911DA11D73
:100A40006A0F711D811D911DA11D20D009F46894AC
:100A50003F912AE0269F11243019305D3193DEF654
:100A6000CF010895462F4770405D4193B3E00FD00A
:100A7000C9F7F6CF462F4F70405D4A3318F0495DF5
:100A800031FD4052419302D0A9F7EACFB4E0A695D8
:100A90009795879577956795BA95C9F700976105FA
:100AA000710508959B01AC010A2E06945795479550
:100AB00037952795BA95C9F7620F731F841F951F45
:100AC000A01D0895052E97FB1EF400940E94790541
:100AD00057FD07D00E94CB0507FC03D04EF40C94C1
:100AE000790550954095309521953F4F4F4F5F4F79
:100AF000089590958095709561957F4F8F4F9F4F8A
:100B000008950E94ED05A59F900DB49F900DA49FA0
:100B1000800D911D11240895B7FF0C9481050E944A
:100B20008105821B930B08952F923F924F925F9203
:100B30006F927F928F929F92AF92BF92CF92DF92ED
:100B4000EF92FF920F931F93CF93DF93CDB7DEB752
:100B5000CA1BDB0B0FB6F894DEBF0FBECDBF0994E6
:100B60002A88398848885F846E847D848C849B843D
:100B7000AA84B984C884DF80EE80FD800C811B814B
:100B8000AA81B981CE0FD11D0FB6F894DEBF0FBE7A
:100B9000CDBFED010895A1E21A2EAA1BBB1BFD01DA
:100BA0000DC0AA1FBB1FEE1FFF1FA217B307E4074C
:100BB000F50720F0A21BB30BE40BF50B661F771FA4
:100BC000881F991F1A9469F7609570958095909584
:100BD0009B01AC01BD01CF010895A29FB001B39F5D
:100BE000C001A39F700D811D1124911DB29F700D36
:0C0BF000811D1124911D0895F894FFCF81
:100BFC00010000004545313039204C616220350040
:100C0C00497361692052616A6172616D616E002580
:100C1C0032642025326420253264003E00256400B5
:0A0C2C00202000556E6C6F636B0012
:00000001FF
