:100000000C9434000C943E000C943E000C943E0082
:100010000C943E000C943E000C943E000C943E0068
:100020000C943E000C943E000C943E000C943E0058
:100030000C943E000C943E000C943E000C943E0048
:100040000C943E000C943E000C943E000C943E0038
:100050000C943E000C943E000C943E000C943E0028
:100060000C943E000C943E0011241FBECFEFD8E04C
:10007000DEBFCDBF0E9481000C94B3000C94000041
:10008000811102C05A9808955A9A089581E00E94F9
:1000900040002FEF84E39CE0215080409040E1F746
:1000A00000C000005A982FEF84E39CE0215080406C
:1000B0009040E1F700C00000089581E00E944000F8
:1000C0002FEF8EE994E2215080409040E1F700C08C
:1000D00000005A982FEF8EE994E221508040904022
:1000E000E1F700C00000089523B130E0A90102C08B
:1000F000559547958A95E2F7CA018095909581704C
:100100000895229A2C982B9A2C9A2D9A83E00E947B
:100110007400882381F00E9446000E9446000E94DD
:100120005D002FEF8EE994E2215080409040E1F78E
:1001300000C00000EBCF84E00E947400882339F0F7
:100140000E9446000E9446000E944600EACF85E0D9
:100150000E9474008823D1F20E945D000E94460034
:0A0160000E945D00F1CFF894FFCF7C
:00000001FF
