:100000000C9434000C9451000C9451000C94510049
:100010000C9451000C9451000C9451000C9451001C
:100020000C9451000C9451000C9451000C948100DC
:100030000C9451000C9451000C9451000C945100FC
:100040000C9451000C9451000C9451000C945100EC
:100050000C9451000C9451000C9451000C945100DC
:100060000C9451000C94510011241FBECFEFD8E026
:10007000DEBFCDBF11E0A0E0B1E0E6E3F4E002C0F6
:1000800005900D92A032B107D9F721E0A0E2B1E0CE
:1000900001C01D92A832B207E1F70E943A010C9408
:1000A00019020C940000EFE1FEE43197F1F700C073
:1000B000000021E030E002C0220F331F8A95E2F7F2
:1000C00086B190E082239323892BD1F38FE19EE4C4
:1000D0000197F1F700C000000895E1E8F0E08081A9
:1000E00088608083AFE6B0E08C9182608C938AE672
:1000F00098E1909389008093880080818460808358
:1001000008951F920F920FB60F9211248F939F9311
:100110008091260190912701019690932701809369
:10012000260180912601909127010A9768F010928C
:1001300027011092260180912401909125010196BA
:1001400090932501809324018091240190912501B1
:100150000A9768F0109225011092240180912201E3
:100160009091230101969093230180932201809125
:10017000220190912301069720F010922301109202
:1001800022019F918F910F900FBE0F901F90189595
:100190009BB19F709BB99BB1807F892B8BB9299AAA
:1001A000299A29980895CF93C82F28980E94C800AB
:1001B0008C2F8295807F0E94C8008FE39FE101977A
:1001C000F1F700C00000CF910895811104C080E8CC
:1001D000860F0C94D30080ECFBCF209A219A8AB131
:1001E000806F8AB98FE59AEE0197F1F700C00000A1
:1001F00080E30E94C8008FE19EE40197F1F700C000
:10020000000080E30E94C8008FED91E00197F1F7B4
:1002100000C0000080E30E94C80080E20E94C80085
:100220008FE39FE10197F1F700C0000088E20E9490
:10023000D3008FE00C94D300CF93C82F289A0E944C
:10024000C8008C2F8295807F0E94C8008FE39FE1B9
:100250000197F1F700C00000CF910895CF93DF938D
:10026000EC018991811103C0DF91CF9108950E9423
:100270001C01F7CF0E94ED000E946D0088B18461DF
:1002800088B980E091E00E942E0160E081E00E9448
:10029000E5008CE091E00E942E012FEF83ED90E3CA
:1002A000215080409040E1F700C0000081E00E94B2
:1002B000D30060E080E00E94E5008BE191E00E94C5
:1002C0002E0160E080E00E94E50081E00E94D30002
:1002D0008091220190912301892B09F448C08091DB
:1002E000220190912301805D0E941C0180912401D4
:1002F00090912501805D0E941C018EE20E941C01EC
:100300008091220190912301805D0E941C012FEFBA
:1003100081EE94E0215080409040E1F700C0000061
:100320007894C11126C0329906C080918100846002
:1003300080938100C1E0349917C084E00E9453008B
:10034000109227011092260110922501109224018B
:10035000109223011092220160E080E00E94E500EB
:100360008BE191E00E942E01C130E9F404C080E2EB
:10037000BBCFC13021F4329B58C0C2E014C0C230A0
:1003800009F045C0329909C082E00E945300809173
:1003900081008B7F80938100C0E0349904C084E0A9
:1003A0000E945300C3E08FEF8C0F823008F0B9CF6A
:1003B00060E080E00E94E50081E00E94D30080912F
:1003C000220190912301892B91F18091220190913A
:1003D0002301805D0E941C018091240190912501E0
:1003E000805D0E941C018EE20E941C01809126010A
:1003F00090912701805D0E941C012FEF81EE94E017
:10040000215080409040E1F700C000008ACF32992F
:100410000AC082E00E945300C2E03499C4CF84E055
:100420000E945300AACFC3E0F8CFC1E0BCCF80E266
:06043000D1CFF894FFCFCC
:100436004545313039204C61622036004973616987
:100446002052616A6172616D616E0020302E30004B
:00000001FF
