:100000000C9434000C9451000C9451000C94510049
:100010000C9485000C9451000C9451000C945100E8
:100020000C9451000C9451000C9451000C94FC0061
:100030000C9451000C9451000C9451000C945100FC
:100040000C9451000C9451000C9451000C945100EC
:100050000C9451000C9451000C9451000C945100DC
:100060000C9451000C94510011241FBECFEFD8E026
:10007000DEBFCDBF11E0A0E0B1E0E0E1FBE002C0F7
:1000800005900D92A033B107D9F721E0A0E3B1E0CC
:1000900001C01D92AB33B207E1F70E94A1010C949D
:1000A00086050C940000CF93DF93EC01CC0FDD1F8D
:1000B0009E0150E040E060E074E284EF90E00E9436
:1000C0004C0221503109309389002093880010920E
:1000D000850010928400D0933801C0933701E1E885
:1000E000F0E0808181608083DF91CF910895059653
:1000F0006AE070E00E9438026150710908F40895C6
:1001000085E38A95F1F70000F7CF1F920F920FB6A3
:100110000F9211242F938F939F9386B1982F9270F3
:1001200090933A018072809335012091360121111C
:100130000EC0992331F0811131C081E080933901E3
:1001400024C0882359F182E0809339010EC02091A8
:100150003601213081F4992321F08823F9F083E0DE
:10016000EDCF81111BC01092390180913201909125
:10017000330101970FC020913601223041F59111D2
:1001800022C081110BC010923901809132019091EF
:10019000330101969093330180933201909139019C
:1001A00080913601981739F081E080933401809175
:1001B0003901809336019F918F912F910F900FBE3F
:1001C0000F901F901895882349F383E0BDCF9111BC
:1001D00004C0882319F382E0B1CF8111DFCF81E021
:1001E000B3CFE1E8F0E0808188608083EFE6F0E063
:1001F00080818260808308951F920F920FB60F92C4
:1002000011242F933F938F939F9385B190E189277A
:1002100085B980913001909131010196909331011F
:10022000809330012091300130913101809137016C
:10023000909138012817390748F010923101109237
:10024000300180918100887F809381009F918F9100
:100250003F912F910F900FBE0F901F9018959BB15B
:100260009F709BB99BB1807F892B8BB9299A299A62
:1002700029980895CF93C82F28980E942F018C2F7A
:100280008295807F0E942F018FE39FE10197F1F714
:1002900000C00000CF910895811104C080E8860F4E
:1002A0000C943A0180ECFBCF209A219A8AB1806F9E
:1002B0008AB98FE59AEE0197F1F700C0000080E35C
:1002C0000E942F018FE19EE40197F1F700C000002A
:1002D00080E30E942F018FED91E00197F1F700C0BC
:1002E000000080E30E942F0180E20E942F018FE333
:1002F0009FE10197F1F700C0000088E20E943A01F7
:100300008FE00C943A01CF93C82F289A0E942F01B6
:100310008C2F8295807F0E942F018FE39FE10197B0
:10032000F1F700C00000CF910895CF93DF93EC0167
:100330008991811103C0DF91CF9108950E948301BB
:10034000F7CFCF93DF93CDB7DEB72A970FB6F894E8
:10035000DEBF0FBECDBF87B18D7D87B988B1826208
:1003600088B9249A0E945401809168008260809329
:10037000680080916C00826280936C0081E00E9432
:100380003A0180E191E00E94950160E081E00E94E5
:100390004C018CE191E00E9495012FEF37EA81E654
:1003A000215030408040E1F700C0000081E00E9411
:1003B0003A0178940E94F10086B1982F9270909340
:1003C0003A0180728093350181114DC0911147C06F
:1003D0001092360180913601809339010BE211E0D1
:1003E0009AE0D92E9E012F5F3F4F79018091340111
:1003F0008823E1F31092340180913201909133010E
:100400009F938F931F930F931F92DF92FF92EF9210
:100410000E94A10260E080E00E944C01C7010E949E
:1004200095018091320190913301877099270FB621
:10043000F894DEBF0FBECDBF892BC1F6E09132012B
:10044000F0913301F695E795F695E795EE70FF2765
:10045000E050FF4F808191810E945300C7CF81E01F
:1004600080933601B7CF82E09923D1F383E0F8CFB0
:1004700097FB072E16F4009407D077FD09D00E9451
:100480006B0207FC05D03EF4909581959F4F08952F
:10049000709561957F4F0895052E97FB1EF400948B
:1004A0000E94630257FD07D00E947F0207FC03D021
:1004B0004EF40C94630250954095309521953F4F32
:1004C0004F4F5F4F089590958095709561957F4F40
:1004D0008F4F9F4F0895AA1BBB1B51E107C0AA1F56
:1004E000BB1FA617B70710F0A61BB70B881F991FD5
:1004F0005A95A9F780959095BC01CD010895A1E288
:100500001A2EAA1BBB1BFD010DC0AA1FBB1FEE1F8D
:10051000FF1FA217B307E407F50720F0A21BB30BD8
:10052000E40BF50B661F771F881F991F1A9469F754
:1005300060957095809590959B01AC01BD01CF01B0
:100540000895AEE0B0E0E7EAF2E00C945D050D89B5
:100550001E898F89988D26E02C831A83098397FF43
:1005600002C080E090E801979E838D83AE01455ED6
:100570005F4F698D7A8DCE0101960E94D1024D8127
:100580005E8157FD0AC02F813885421753070CF44E
:100590009A01020F131FF80110822E96E4E00C94CA
:1005A0007905ABE0B0E0E7EDF2E00C944F057C019B
:1005B0003B018A01FC0117821682838181FFC8C139
:1005C000CE0101965C01F7019381F30193FD8591C2
:1005D00093FF81913F01882309F453C1853239F497
:1005E00093FD859193FF81913F01853229F4B701F5
:1005F00090E00E94C104E7CF912C212C312CFFE127
:10060000F31538F08B3211F190F4803209F1833216
:1006100029F137FC3CC020ED280F2A3050F536FE7A
:1006200020C08AE0989E200D1124922E06C08D32A3
:1006300091F0803371F7689430F8F30193FD859160
:1006400093FF81913F018111DACF21C0689431F885
:10065000689432F8F2CF689433F8EFCF689434F8A6
:10066000ECCFEAE02E9E200D1124222E689435F85E
:10067000E4CF8E3229F436FC04C1689436F8DDCF1D
:100680008C3619F4689437F8D8CF8836B1F2982FA1
:100690009F7D95549330E0F08336A1F18337C1F10B
:1006A000833509F063C02801F2E04F0E511CF801B8
:1006B000C080D180692D70E036FC02C06FEF7FEF03
:1006C000C6010E94AB044C01689437F882010AC04D
:1006D0000C5F1F4FFFE3F98388248394912C6501FD
:1006E000E89437F833FE2DC0522C8114910471F533
:1006F000552009F468CFB70180E290E00E94C10460
:100700005A94F6CFF801808189830E5F1F4FE4CFA2
:100710002801F2E04F0E511CF801C080D180692DF4
:1007200070E036FC02C06FEF7FEFC6010E94B60496
:100730004C018201D5CFB70180E290E00E94C10454
:100740002A942814190409F0B0F7CECFF60137FC2B
:10075000859137FE81916F01B70190E00E94C1043D
:1007600051105A94F1E08F1A9108BFCF843619F0D6
:10077000893609F077C0F80137FE6BC0608171815E
:10078000828193810C5F1F4FF32DFF763F2E97FFE1
:1007900009C090958095709561957F4F8F4F9F4FC1
:1007A000689437F82AE030E0A5010E94F104C82ED1
:1007B000CA188C2C432C36FE0CC0E89440F8C9149F
:1007C00040F434FE05C032FC03C0F32DFE7E4F2EF4
:1007D000892C44FE95C0FE01EC0DF11D8081803313
:1007E00009F087C0242D297E422E842D8870582E32
:1007F00043FC95C040FE8FC09C2C821418F42C0C36
:10080000922C981844FE91C0B70180E390E00E94BA
:10081000C10442FE09C088E790E041FE02C088E5BD
:1008200090E0B7010E94C104C91408F48AC0CA94B8
:10083000D12C9FEFC91AD90ACA0CDB1CF601829190
:100840006F01B70190E00E94C104AC14BD04B1F780
:100850004FCF60817181072E000C880B990B0E5FC2
:100860001F4F92CFD32CE894D4F82AE030E085379C
:1008700039F1232D297FD22E8F3601F148F48835A6
:10088000A9F0F701868197812B96E2E10C946B0524
:10089000803749F08837A9F7D4FE02C06894D2F8AF
:1008A00020E130E00DC06894D4F8F6CF34FE03C0E8
:1008B000822F8660D82E20E132E002C028E030E0AE
:1008C000F801D7FE0FC060817181828193810C5F36
:1008D0001F4FA5010E94F104C82ECA183D2CE894B0
:1008E00037F867CF6081718190E080E00E5F1F4F25
:1008F000F0CF42FC02C0839478CF8394839475CF69
:10090000842D867809F471CFF6CFB70180E290E0AC
:100910000E94C10483948214C0F3512C73CF522CD3
:100920005818821408F46ECFF8CF842D867809F415
:100930007BCF8BE241FE80E247FC8DE2B70190E085
:1009400071CFB70180E390E00E94C1049A946CCF0C
:100950008FEF9FEF99CFFC0105906150704001101F
:10096000D8F7809590958E0F9F1F0895FC016150D8
:10097000704001900110D8F7809590958E0F9F1FC1
:1009800008950F931F93CF93DF93182F092FEB0137
:100990008B8181FD09C01FEF0FEF812F902FDF9119
:1009A000CF911F910F91089582FF14C02E813F8136
:1009B0008C819D81281739073CF4E881F981CF01AA
:1009C00001969983888310838E819F8101969F83EE
:1009D0008E83E3CFE885F985812F0995892BA1F3D3
:1009E000DACFFA01AA27283051F1203181F1E894B9
:1009F0006F936E7F6E5F7F4F8F4F9F4FAF4FB1E012
:100A00003ED0B4E03CD0670F781F891F9A1FA11D0C
:100A1000680F791F8A1F911DA11D6A0F711D811D0D
:100A2000911DA11D20D009F468943F912AE0269FD2
:100A300011243019305D3193DEF6CF010895462F31
:100A40004770405D4193B3E00FD0C9F7F6CF462F12
:100A50004F70405D4A3318F0495D31FD405241937B
:100A600002D0A9F7EACFB4E0A69597958795779538
:100A70006795BA95C9F700976105710508959B01BF
:100A8000AC010A2E06945795479537952795BA9548
:100A9000C9F7620F731F841F951FA01D08952F9221
:100AA0003F924F925F926F927F928F929F92AF92FE
:100AB000BF92CF92DF92EF92FF920F931F93CF934B
:100AC000DF93CDB7DEB7CA1BDB0B0FB6F894DEBFE2
:100AD0000FBECDBF09942A88398848885F846E8408
:100AE0007D848C849B84AA84B984C884DF80EE8052
:100AF000FD800C811B81AA81B981CE0FD11D0FB65B
:100B0000F894DEBF0FBECDBFED010895F894FFCF7E
:100B1000060126014A015D018801B801EE010B02C0
:100B20004545313039204C61622037004973616995
:100B30002052616A6172616D616E0025346400004B
:00000001FF
